:10048F0047616D65204F7665722121210053544FCE
:02049F0050000B
:10045000EF1FAC0670011E4C600B007D027CC7DCF8
:05046000FEDDFC80EB55
:010465002274
:10000300750802750910E4F50B750C0B750D0812D4
:0E001300047B1202131202631202B37509106D
:10002100850C0E1201B28F0A751200850B137B032A
:100031007D0E7F01120413850C0EE50ED3950D4044
:100041000D7B02AD0E7F011204D7150E80ECE50A7F
:10005100B401057508018003750802E4FB7D02AF58
:10006100081204D77B01AD097F021204D77F907E6D
:100071000112045012047BE5086402702BE5096447
:10008100037025F512850B137B037D0E7F0112048E
:1000910013150CE50C650D70757BFF7A04798F7D66
:1000A100037F021203F080F1E508B40109E509B408
:1000B1000304050B8058E50A64037052E50A6404E1
:1000C100604C1201B28F0A751200850B137B037D00
:1000D1000E7F011204137B01AD097F021204D7E4E4
:1000E100FB7D02AF081204D7850C0EE50ED3950DEA
:1000F100400D7B02AD0E7F011204D7150E80EC7B03
:0E010100FF7A04799C7D047F011203F080AE2A
:0F010F001509E509D39400400302002102001EE8
:0604A100C2A58F80D2A766
:0904A700007F027EC7DEFEDFFCCF
:0104B0002229
:0A04CD00C2A61204A1C2A70204A7F0
:10043200CFCDCFCECCCE12015D7C007D0A12015D04
:04044200ED2430FF76
:0A044600D2A61204A1C2A70204A767
:10047B007F381204CD7F0C1204CD7F061204CD7F82
:04048B00010204CD99
:1004B100EDBF0103148002243F4480FF1204CD22CA
:0A04D700AC031204B1AF04020446A6
:0603F0008B0F8A10891139
:1003F6001204B1E4FDAB0FAA10A9118D827583001A
:0C04060012011EFF60061204460D80E982
:0104120022C7
:0B03BE00C39F7F0AFDE49400FC7E005A
:0803C9008E148F158C168D17A0
:1003D1007F017E00E4FBEBC39517E5166480F8749A
:0E03E1008098500AAC14AD1512014B0B80E849
:0103EF0022EB
:020413008B114B
:100415001204B17A01EAD395115011EAFFE51112E0
:0C04250003BEAC12AD131204320A80E9D1
:0104310022A8
:020303008B1A53
:100305001204B1C3E51B64809480400D7F2B120459
:1003150046851B1D851C1E80107F2D120446C3E4D7
:10032500951CF51EE4951BF51D7A01EAD3951A5027
:1003350011EAFFE51A1203BEAC1DAD1E1204320A06
:0203450080E94D
:010347002293
:020348008B2107
:10034A001204B17A01EAD39521502FEAFFC3E521BD
:10035A009F7F101203C2AC22AD23CFCDCFCECCCE1D
:10036A0012015DEF540FFEC3940AEE50042430804C
:0A037A00022437FF1204460A80CB6C
:010384002256
:020385008B26C5
:100387001204B17A01EAD39526502BEAFFC3E5267A
:100397009FFDE49400FC7F027E001203C9AC27ADE9
:1003A70028CFCDCFCECCCE12015DEF54012430FF44
:0603B7001204460A80CF8B
:0103BD00221D
:100213007F401204CD7F0F1204467F411204CD7F2D
:100223000B1204467F421204CD7F0E1204467F4315
:100233001204CD7F0F1204467F441204CD7F0E12A9
:1002430004467F451204CD7F0E1204467F461204F6
:10025300CD7F1E1204467F471204CD7F0A02044657
:100263007F481204CDE4FF1204467F491204CD7F78
:10027300041204467F4A1204CD7F051204467F4BC5
:100283001204CD7F051204467F4C1204CD7F171252
:1002930004467F4D1204CD7F141204467F4E120490
:1002A300CD7F1C1204467F4F1204CD7F0402044607
:1002B3007F501204CDE4FF1204467F511204CDE4B3
:1002C300FF1204467F521204CD7F1B1204467F5354
:1002D3001204CD7F1F1204467F541204CD7F1F12D8
:1002E30004467F551204CD7F0E1204467F56120436
:1002F300CD7F041204467F571204CDE4FF02044667
:1001B200E4F50F20B1137F14FE12046630B1FD7F07
:1001C200147E00120466750F0120B0147F147E00A5
:1001D20012046630B0FD7F147E00120466750F02B1
:1001E20020B2147F147E0012046630B2FD7F147EAA
:1001F20000120466750F0320B3147F147E001204EC
:100202006630B3FD7F147E00120466750F04AF0FD3
:0102120022C9
:10046600EF1FAC0670011E4C600A7D027CEFDCFEBD
:04047600DDFC80EC3D
:01047A00225F
:030000000204C136
:0C04C100787FE4F6D8FD75812802000366
:10011E00BB010CE58229F582E5833AF583E0225096
:10012E0006E92582F8E622BBFE06E92582F8E222E0
:0D013E00E58229F582E5833AF583E49322FA
:10014B00EF8DF0A4A8F0CF8CF0A428CE8DF0A42EC8
:02015B00FE2282
:10015D00BC000BBE0029EF8DF084FFADF022E4CC86
:10016D00F875F008EF2FFFEE33FEEC33FCEE9DEC4F
:10017D00984005FCEE9DFE0FD5F0E9E4CEFD22ED95
:10018D00F8F5F0EE8420D21CFEADF075F008EF2FDF
:10019D00FFED33FD4007985006D5F0F222C398FDD0
:0501AD000FD5F0EA226D
:00000001FF
